:020000040001F9
:10C000000040002021C2010033C2010035C20100FE
:10C010000000000000000000000000000000000020
:10C0200000000000000000000000000037C2010016
:10C03000000000000000000039C201003BC2010006
:10C040003DC201003DC20100A9D201003DC2010074
:10C050003DC2010000000000A5CF01003DC201006B
:10C060003DC201003DC2010059D201003DC20100A4
:10C070003DC201003DC201003DC201003DC20100C0
:10C080003DC201006DD001003DC201003DC2010072
:10C090003DC20100E9D0010001D101003DC2010013
:10C0A0003DC201003DC20100000000000000000090
:10C0B0000000000000000000000000000000000080
:10C0C00000F002F800F045F80CA030C80838241839
:10C0D0002D18A246671EAB4654465D46AC4201D1C0
:10C0E00000F037F87E460F3E0FCCB64601263342AD
:10C0F00000D0FB1AA246AB46334318473451000028
:10C1000054510000103A02D378C878C1FAD85207C7
:10C1100001D330C830C101D504680C6070470000FD
:10C120000023002400250026103A01D378C1FBD853
:10C13000520700D330C100D50B6070471FB500987F
:10C14000019900F09CFD00F0D5FA1FBD002002F01F
:10C1500049FE02F0B5FE1146FFF7F0FF00F0FCFECD
:10C1600003F03BFC401E00BF00BF00BF00BF00BF8C
:10C1700000BF00BF00BF00BF00BF00BF00BFF1D1C4
:10C1800070470000401E00BF00BF00BF00BF00BFDF
:10C1900000BF00BF00BF00BF00BF00BF00BFF1D1A4
:10C1A00070470000056885F3088846680A4AEFF37F
:10C1B00005839A42304602D1084CA6463047074CC8
:10C1C000064D0646064FF0B4034C034D024E024F97
:10C1D000F0B404480047000000000000FFFFFFFF2C
:10C1E00000000021F9FFFFFF70B505460C4616461A
:10C1F00002E00FCC0FC5103E102EFAD2082E02D34B
:10C2000003CC03C5083E042E07D301CC01C5361F5D
:10C2100003E021782970641C6D1C761EF9D270BD74
:10C22000074802680F210A43026006488047064813
:10C230000047FEE7FEE7FEE7FEE7FEE7FEE7000059
:10C240002405004099D10100C1C00100434351437E
:10C2500030B55C18010C130C0D4692B25D4380B2F0
:10C2600051432C19054655430A0C09044D196241E6
:10C270005843010C00044019514130BDFEB505463C
:10C2800010460C46184373D0AE468C460020AD1ABB
:10C2900001469C4167D36646002701243D46B61AF5
:10C2A0009D4102D313463A462124654676462F0423
:10C2B000360C3E432D0CB61A9D4104D3150C1B04BD
:10C2C0002B4312041034654676462F06360A3E4349
:10C2D0002D0AB61A9D4104D3150E1B022B431202E0
:10C2E0000834654676462F0736093E432D09B61AAF
:10C2F0009D4104D3150F1B012B431201241D6546DC
:10C300007646AF07B6083E43AD08B61A9D4104D342
:10C31000950F9B002B439200A41C65467646EF07C1
:10C3200076083E436D08B61A9D411AD392185B41B8
:10C33000641C16E00018764665464941B71A9D41CF
:10C340000191009009D36046B11A98418E46844607
:10C35000009801990025401C6941DD0752082A43D5
:10C360005B08641EE6D57246634603B0F0BDFFE786
:10C3700000200146C046C0462A462346F5E703464C
:10C3800010B50B439B070FD1042A0DD308C810C961
:10C39000121FA342F8D018BA21BA884201D901204D
:10C3A00010BD0020C04310BD002A03D0D30703D026
:10C3B000521C07E0002010BD03780C78401C491C7B
:10C3C0001B1B07D103780C78401C491C1B1B01D197
:10C3D000921EF1D1184610BD30B5441C03E001781F
:10C3E000401C00290DD08107F9D10B4BDD0104C899
:10C3F000D11A91432940FAD0001B0A0603D0C01E6F
:10C4000030BD001B30BD0A0401D0801E30BD0902C2
:10C41000FCD0401E30BD000001010101F8B5042A26
:10C420002CD3830712D00B78491C0370401C521E7A
:10C4300083070BD00B78491C0370401C521E8307E6
:10C4400004D00B78491C0370401C521E8B079B0FB5
:10C4500005D0C91ADF002023DE1B08C90AE0FFF758
:10C46000C3FEF8BD1D4608C9FD401C46B4402C4320
:10C4700010C0121F042AF5D2F308C91A521EF0D4B4
:10C480000B78491C0370401C521EEAD40B78491CDF
:10C490000370401C012AE4D409780170F8BD1346EA
:10C4A00010B50446CAB21946100282181004821848
:10C4B000204600F018F8204610BDD2B210B5130285
:10C4C0009A1813049A1800F00EF810BD01E004C089
:10C4D000091F0429FBD28B0701D50280801CC907E4
:10C4E00000D00270704700290BD0C30702D0027041
:10C4F000401C491E022904D3830702D50280801CF8
:10C50000891EE3E70022EEE70022DFE700220309AD
:10C510008B4273D3030A8B4258D3030B8B423CD319
:10C52000030C8B4221D312E003460B437FD400223D
:10C5300043088B4274D303098B425FD3030A8B42B7
:10C5400044D3030B8B4228D3030C8B420DD3FF2221
:10C55000090212BA030C8B4202D31212090265D0EF
:10C56000030B8B4219D300E0090AC30B8B4201D3A2
:10C57000CB03C01A5241830B8B4201D38B03C01AE9
:10C580005241430B8B4201D34B03C01A5241030B60
:10C590008B4201D30B03C01A5241C30A8B4201D311
:10C5A000CB02C01A5241830A8B4201D38B02C01ABC
:10C5B0005241430A8B4201D34B02C01A5241030A33
:10C5C0008B4201D30B02C01A5241CDD2C3098B4218
:10C5D00001D3CB01C01A524183098B4201D38B0195
:10C5E000C01A524143098B4201D34B01C01A524138
:10C5F00003098B4201D30B01C01A5241C3088B427D
:10C6000001D3CB00C01A524183088B4201D38B0067
:10C61000C01A524143088B4201D34B00C01A524109
:10C62000411A00D201465241104670475DE0CA0FE0
:10C6300000D04942031000D34042534000229C46A0
:10C6400003098B422DD3030A8B4212D3FC228901AA
:10C6500012BA030A8B420CD3890192118B4208D380
:10C66000890192118B4204D389013AD0921100E0E2
:10C670008909C3098B4201D3CB01C01A52418309F6
:10C680008B4201D38B01C01A524143098B4201D323
:10C690004B01C01A524103098B4201D30B01C01A4E
:10C6A0005241C3088B4201D3CB00C01A52418308C8
:10C6B0008B4201D38B00C01A5241D9D243088B421E
:10C6C00001D34B00C01A5241411A00D201466346C1
:10C6D00052415B10104601D34042002B00D5494225
:10C6E000704763465B1000D3404201B50020C0464E
:10C6F000C04602BD70B5064C7C44064D7D4403E047
:10C70000206800198047241DAC42F9D170BD00009B
:10C71000544B00005C4B00000246C80FC007814329
:10C720004B0030B54B405B009B0D20D01923DB063E
:10C73000C91801231B05994220DB0324A407042503
:10C740001346AB400BD3002B04D1EB0613409B00E8
:10C75000E34204D401246407002312195941FF2342
:10C760001B0599420BD2C9000143500F09E0CB02CF
:10C7700004D501430803024305D0054830BDFF211D
:10C78000C905084330BD084607210905884330BD67
:10C790000000C07FF0B50C46871A9C410D46861AF2
:10C7A0009D4103D2C01BA141D21963410D0D1F0D44
:10C7B000C94EEC1BAE435CD07F057F0D0026002FD9
:10C7C00051D02D05AC46A943DD020123ED0A1B051E
:10C7D0001D4320231B1B24D41746E7403818714102
:10C7E0002F46E740CC199D402818314661410C0D79
:10C7F00027D161449A4013D50023401C594152006F
:10C800000ED14008400001224B005205D34207D30D
:10C8100005204007C14201D5B04900E0B04930468B
:10C82000F0BD6B00002A00D001229A181F23203C83
:10C830001B1B01D5002302E0E540281871410C0DB7
:10C84000D7D0012424050919C407CD074008490899
:10C85000E40F28436144002CD5D00024401C6141E2
:10C860009A40D0D1CDE76A05520DD9D1C90FC90779
:10C87000D5E79C4D4E00002801D0012400E00024A3
:10C8800034195F00002A01D0012600E00026BE19FD
:10C89000954FAC420CD8AE420AD8B44206D001251E
:10C8A0006D05EC42BCD010461946F0BD9942FCD053
:10C8B00000203946F0BDF0B51FB40C460F46811A72
:10C8C0009F412546861A9D4106D20125ED076F40FE
:10C8D000401ABC4152187B41210D1E0D8D1BAC46E8
:10C8E0007D4D8D437ED075056D0D7CD00D05AE461A
:10C8F000AC431B031B0B794D52429D4120236646DE
:10C900009B1B14D31746F74038180026009074413B
:10C9100060462F460741E41900989D40281866415B
:10C9200016D4714671189A4025D5012320E093183A
:10C930002A466A415200002B00D0521C1E23203E82
:10C940009B1B002B61DD3541EE1728186641E8D5A9
:10C95000001876415B1C9A4000D3401C4B05F3182D
:10C960001524E34010D3002B52D071467118D30F19
:10C97000C01802D3491C05B0F0BD0123DB079A4261
:10C98000F9D140084000F6E701225205B21801D162
:10C99000002853D00123CC0ADB029943891E002AC8
:10C9A00008D1020C03D0020C0004103902E0024648
:10C9B000002020390023550B05D112020823550B06
:10C9C00001D152010D23550C01D112011B1DD50CB3
:10C9D00001D192009B1C150D01D152005B1C20253A
:10C9E000EE1A01E02CE022E00546F54015439840A0
:10C9F000CA1AE10769181305C918002ABBDA03200F
:10CA000040070818C10FC9070FE071466118B2E767
:10CA1000F10740080843711071444A000CD001230B
:10CA20005B059A42A7D2C90FC9070020A3E74905B1
:10CA3000490D26D1002001E00028F4D100219AE719
:10CA4000284D6600002801D0012100E00021711866
:10CA50005F00002A01D0012600E00026BE19224F07
:10CA6000A94210D8AE420ED8B14208D001256D05BA
:10CA7000E94206D01946A802414010467BE79C4295
:10CA800001D0214677E70020394674E710B50C46FF
:10CA90005C4005D50124E4076340FFF70CFF10BD9F
:10CAA000FFF778FE10BD30B40C465C4004D501247D
:10CAB000E407634030BC6DE630BCFCE670B5012491
:10CAC000E40761400D465D4002D4FFF763FE70BD90
:10CAD0006340FFF7F0FE70BDFF0700000000F0FFAD
:10CAE0000000F07F0000E0FF0000F87F0121C90591
:10CAF0000123411842001B06D3185B0E0AD0C11057
:10CB00000722D206891840075242D14201D552006D
:10CB100089187047090208D50146002A03D0C10FC1
:10CB2000C9070020704710467047420202D000201B
:10CB300002497047072109050143F4E70000F87F27
:10CB40000102C21504D00123DB071943002A0ADBC6
:10CB50009E239A1A02D40846D0407047FF22410013
:10CB60001206914201D900207047C017C043704798
:10CB7000004870472C3000200048704730300020BB
:10CB800070B5064600F05EF8056830460B30C40804
:10CB9000E400B44201D8002070BD68682A4600282D
:10CBA00018D00168A14211D30B46214608318B42AF
:10CBB00008D3436801194B6003681B1B0B6051606D
:10CBC000046001E041685160001D70BD024640688C
:10CBD0000028E6D12146284600F03CF80028DCD1A8
:10CBE00070BD70B50446051F00F02CF80068002CDD
:10CBF0001AD0446801E020466468002C01D0AC42A1
:10CC0000F9D301680A18AA4204D12A68054689188E
:10CC1000016000E0456028684119A14205D16168C2
:10CC2000696021684018286070BD6C6070BD10B5E7
:10CC300000F060F800F057F810BD10B500F072F881
:10CC400010BD000000487047343000207047704726
:10CC50007047704738B504460A460020694600F020
:10CC6000F1F8002805D002462046009900F09CF813
:10CC7000012038BD10B5012000F0D2F810BDF8B584
:10CC800000F0D4F8054600200C461020C0460646A9
:10CC9000A819A0420DD932466946002000F0D2F80A
:10CCA000070001D100F0BCF80098A04200D0054672
:10CCB000C419FFF7C7FFF61D07460560F008C0005E
:10CCC0004619284600F008F8B44204D031463868C6
:10CCD000A21B00F069F8F8BD00210160416080608E
:10CCE00070471020704710B5002801D000F052F8AE
:10CCF00010BD000010B5002102A000F077F801205F
:10CD000010BD00005349475056464E3A20507572A8
:10CD100065207669727475616C20666E2063616C43
:10CD20006C65640010B500F00EF80169002903D0AD
:10CD300000220261884701E08068804700F04EF8D9
:10CD400010B500F04BF870B500F02AF804680546FD
:10CD5000002C15D12020FFF713FF040012D0002073
:10CD600009492C6003C4094921602071A060E0607A
:10CD700007492061083C002901D000F07FF8E061FC
:10CD8000204670BD00F02AF80000000041CD0100EF
:10CD90000000000001491820ABBEFEE7260002009B
:10CDA000004870473830002010B50346406801E065
:10CDB00003464068002801D08842F9D31868C31898
:10CDC0008B4206D0CB1CD808C000001D411A521A55
:10CDD0000146081D0A60FFF704FF10BD002000F0A7
:10CDE00075F8C046C0460120FFF7D4FF70B5054670
:10CDF0000C460A2000E06D1C00F061F8002D06D002
:10CE000028780028F7D102E0641C00F058F8002CC4
:10CE100002D020780028F7D10A2000F050F870BD29
:10CE200010B500F059F8FFF75EFF10BD012269460A
:10CE3000114B120382188A421A6001D811467047BA
:10CE40001960704770B50C4C6D4601263603236897
:10CE5000AD1B9A18AA420ED8AD1A9019EE0F75198B
:10CE60006D10AA18904200D91046C01D0B60C20870
:10CE7000D200D01A226070BDBC28002010B58820D6
:10CE8000FFF77EFE002801D00021017010BD80292F
:10CE900004D8002802D00178002901D00020704772
:10CEA0000121017008307047002803D00246083283
:10CEB000914201D00020704700210170704708B5F1
:10CEC000694608700320ABBE08BD704710B500F07E
:10CED0002BF8FFF708FF10BD10B5012805D0002181
:10CEE00003A0FFF783FF012010BD09A1F8E70000B0
:10CEF00053494752544D454D3A204F7574206F6643
:10CF00002068656170206D656D6F727900000000AA
:10CF10003A2048656170206D656D6F727920636F8E
:10CF2000727275707465640010B5002102A0FFF77D
:10CF30005DFF012010BD0000534947414252543A61
:10CF40002041626E6F726D616C207465726D696EE6
:10CF50006174696F6E00000010B503F032FA03F0DF
:10CF60002FFA02F00FFF10BD70B50D490546CC68D1
:10CF70008B684A68C4608360103142601EC91035F6
:10CF80001EC50446002520C0064605701021401C21
:10CF9000FFF7B8FA758225766583A58370BD00001A
:10CFA000A40E0200F8B52A48006900902948C16B18
:10CFB00000294CD028494968002948DA0021C1637A
:10CFC000264E274D0C46A700F05900283BD0254996
:10CFD000095D002920D00099E140C9070ED07919D8
:10CFE0000968090CC943890716D01F4A1168E14036
:10CFF000C90711D09268012190470DE0791909689D
:10D00000090CC943890707D1174A5168E140C9078C
:10D0100002D0926802219047781901688903890F2C
:10D0200011D00268032109048A430260009AE24099
:10D03000D20703D002680A43026004E001680122BB
:10D04000520411430160641CE4B21F2CBBD3F8BD31
:10D05000000500504061004000630040D4290020DA
:10D0600000070050502A00201C28002070B5184CE2
:10D0700063680225174A00211748002B04D0436833
:10D080005B1C436061609560144B1E68002E1DD0D0
:10D09000196001231B0493604678002E16D0666841
:10D0A000002E04D04668761C466061609560446836
:10D0B0000B4D24066D682C4385682C1B002C05DC69
:10D0C000417008488360936003F000FD70BD00006C
:10D0D000001101404013014054280020401101403C
:10D0E0000015014000130140044901220878504016
:10D0F00008704968002900D0084770476C28002054
:10D10000F8B5244C6068002807D08047002803D079
:10D110000022114601F0DCFEF8BD20780028FBD08B
:10D120002069002807D00026E068002805D00025E7
:10D13000002E04D013E00126F6E70125F8E7684643
:10D1400051DF052806D0002806D00022114601F044
:10D15000BFFE04E0012602E0216900988847002D07
:10D1600012D1608869460880A06861DF052806D072
:10D17000002806D00022114601F0AAFE04E0012595
:10D1800002E0E168A0688847002ED8D0002DCFD0FB
:10D19000F8BD0000A8280020F8B528480126018C19
:10D1A000CAB22749012A17D1838C1B0714D1038DDA
:10D1B0001B061C0F03D1848D2406240F0FD01B0FD8
:10D1C000012B03D1848D2406240F08D0032B03D117
:10D1D000838D1B061B0F02D0012A07D014E0194AC9
:10D1E0004A600122184BD2039A6102E0828C120736
:10D1F0000AD1028D1206120F042A05D1808D000675
:10D20000000F01D1114886600D4800258661104C41
:10D210006560800586600F4F606800280DD1C820CA
:10D22000FEF7A0FF6D1CBD42F6D3054900208861C2
:10D230008805866060680028FCD0F8BDC00F00F04B
:10D2400000050040DFFF07C0006C00400006004002
:10D2500000010040881300000D490020C8600D48FF
:10D2600001880D48C1600D4A0D491378002B01D08B
:10D270000B8803605378002B01D04B884360927871
:10D28000002A01D089888160064901200860704722
:10D2900040A100402828002040A500402A28002066
:10D2A0003428002000A000400C4841680A060C49C0
:10D2B00004D5CA69002A01D0012106E04068400770
:10D2C0000AD58868002807D0002106480068002891
:10D2D00002D0044A926810477047000000230040C3
:10D2E0000021004040280020F0B58FB0044602F035
:10D2F000E7F8204600F036F92088192874D006DCBB
:10D30000102807D011284BD0152848D161E01B28E0
:10D3100045D172E0A0880090217D049101F0E2FBEC
:10D32000009901F0D2FC23461633A71DFD1D019381
:10D3300001F0D8FB04992A788C4639780992064680
:10D340008E466A1C791CB56D02270098019B3D43EF
:10D35000B565756E002D22D00C9008910D93079243
:10D360006D4609990C9B67462B807046AF70E8703C
:10D370000020A880E880288128460B30A972074643
:10D3800001F0DDFC0D9B0593281D089901F0E5FCDB
:10D390003846079901F0E1FC716E6846884761E004
:10D3A000A68801F09FFB334901F08FFCA57901F0BD
:10D3B00099FB0746826D02208243BA65BA6E294600
:10D3C000002A01D0304690473846AC3001F02EFBA1
:10D3D00048E000F0DDFD4369A288A11D002B41D08B
:10D3E000104698473EE0FFE701F07CFB026EA17912
:10D3F000002A37D00846904734E0A51D01F072FBA3
:10D400000490E8790A90287A691CC207D20F099221
:10D410004207C7082646950F0F36684601F09DFC67
:10D4200069460A988871099ACA710D724F720498F8
:10D43000039606468C3631686D46002902D0284690
:10D44000884709E07068002806D0B369002B03D034
:10D4500031462A4608319847F069002802D029460B
:10D4600003F061FC00F034FC214600F075FA0FB0C7
:10D47000F0BD0000FFFF000010B502F043FC0020EB
:10D4800010BD000084B00022029228216846039259
:10D490000181FF21913141818281C181501C0107AD
:10D4A000090F10316846017005220AA17CDF0004D3
:10D4B000000C0CD10120400278DF0004000C06D1E2
:10D4C00002A87ADF0004000C01D177DF80B204B03B
:10D4D000704700006E5246357800000070B5144C5D
:10D4E000002025462856401C04D12C22114912A0A8
:10D4F00002F0B6FE686900686968012608400028E5
:10D5000001D0002500E0012500202056401C04D158
:10D510002422084908A002F0A3FE6068002D01D073
:10D52000E16800E0216908600948067070BD0000EC
:10D53000BC290020541102006F626A2D3E70696E92
:10D5400020213D202850696E4E616D65294E4300B3
:10D550000828002010B503F041F810BD00487047BE
:10D560009428002070B584B0044600F0ABF805465E
:10D57000228826460C361035B01D303A092A6ED264
:10D5800011007944097949188F44046911692732D7
:10D5900069435700E088002804D02868816828463D
:10D5A00088475CE03146284600F050FD57E0E088AF
:10D5B000002805D0284640300178022905D006E031
:10D5C0003146284600F029FF49E001210170284634
:10D5D0002030017F491C017741E0286841682846D6
:10D5E000884700283BD03146284600F07DFE36E0D3
:10D5F000A28869460A80A2894A80E2898A80228AB2
:10D60000CA80029000F05EF842686946002A24D180
:10D6100025E0A18868460180A1894180A17B017134
:10D62000218AC180618A01811434039400F04AF890
:10D6300082686946002A10D111E0A28869460A80F2
:10D64000A2894A80A27B0A71228ACA80029000F0D5
:10D6500039F8C2686946002A01D008469047284632
:10D6600000F02FFF284600F051FD04B070BD00000F
:10D6700010B5094800680168C96888470168024612
:10D680004B6D3432014604460A3198472068211D0B
:10D69000826D2046904710BD0C28002010B5C08C2C
:10D6A0004988884206D104480068002800D0804795
:10D6B00001F034FC10BD000000280020022070475B
:10D6C0000220704770B522480078C0073DD120483D
:10D6D00001F0A9FB002838D01E491F48086000242B
:10D6E0008C750D460C8530352C706C821B4A0A6196
:10D6F000896408462C776C77AC77EC775031103022
:10D700000C70042318221649423001F05AFB0423FE
:10D7100020221449623001F054FB014680310C6034
:10D720004C608C60CC60A4380C6148610146FF31CC
:10D730003D310C604C608C60CC600C614861FF3006
:10D74000013044650248C046C046024870BD000032
:10D7500064280020F82A0020600F0200D80F020081
:10D7600015DF010069CF0100F3B591B004461298AE
:10D7700001F0CCFD0F9009AA0FA90120A0DF00281D
:10D780007ED169461298898C818300200E90129870
:10D79000007D002875D92046FF302130089012996D
:10D7A0000E98097D814201D8002003E01299800083
:10D7B000896908580A904069002808D10A98008BA6
:10D7C000002804D10A982030007802287ED00A98D8
:10D7D00001F09CFD0F90002000900A9D07460690E6
:10D7E0002035287A002822D9C0B2B84201D80026B4
:10D7F00003E00A98416AB8000E580022694601A861
:10D800000A7101301021FEF77DFE52486946C88238
:10D810003178002906D1718A814203D17069009064
:10D82000B08B06907F1C287AFFB2B842DCD80A9AE7
:10D83000A87A538B168B9E466B78697A9C46526900
:10D840002B780C9363790591DB001F19069B0690DA
:10D850007C370493009807977346029300920390D5
:10D86000019663460FA900200C9A01F08FFC002856
:10D8700046D161790A9889000919C862617901E085
:10D880003EE061E0C900091940310A98898FC183DF
:10D8900060790027401C6071287A00284AD9C0B2FC
:10D8A000B84201D8002603E00A98416AB8000E5831
:10D8B0000022694602A80A7201301021FEF722FEFA
:10D8C0002448694648833178002900E032E002D1DB
:10D8D000718A814229D0304601F018FD0F900899D5
:10D8E000708B097F338B490072690919FF313F3111
:10D8F000019100900FA9002001F0DFFC002802D068
:10D90000032013B0F0BD0898089A007F81000B191E
:10D91000FF21401C1D3110775E500898007F4000A9
:10D920000019FF300130C08FF0837F1C287AFFB2CE
:10D93000B842B4D80E98401CC0B20E901298017D27
:10D940000E98814200D92AE72079401C20710020DE
:10D9500013B0F0BD01290000F0B5054608880C1D84
:10D960008FB051287FD037DC012858D050284AD1B9
:10D970006F796688002F39D0F907C90F0020002978
:10D9800008D9C200521980321288B2420FD0401C0E
:10D990008842F6D30846874228D9C1004919803108
:10D9A0000A88B24203D00989B1421CD1401C411CF3
:10D9B0001CD080004019C06A2021095C8A06920FA1
:10D9C00014D0A28B8B0601D5930703D4C9060FD5BB
:10D9D000D1070DD003210CE052283DD0532812D19D
:10D9E0000527668846E0801C8742D6D8022741E09A
:10D9F0000421C08B032908D004290BD0052902D1AA
:10DA0000A96A00296DD10FB0F0BD296A002968D13B
:10DA10000FB0F0BD696A002963D10FB0F0BDEC68AA
:10DA20000E7A002CF9D02168002902D030468847B0
:10DA300009E06068002806D0A369002B03D02146C6
:10DA4000324608319847E0690028E6D0314603F0B5
:10DA500084F90FB0F0BD06E0002320881A4619466D
:10DA6000A9DF0FB0F0BDA07801283DD00228F8D181
:10DA70000727A688687984460028F2D06046C10747
:10DA8000C90F0020002909D9C20052194032928FD3
:10DA90003346B24211D0401C8842F5D30846844533
:10DAA000DFD9C10049197C22525A3346B24204D010
:10DAB00080318A88B24219D1401C411CD1D0022F3A
:10DAC00019D0824A0021062F7ED0072F3BD018465E
:10DAD000032F7AD0042F79D0052FC2D1A96A00294B
:10DAE000BFD088470FB0F0BD0627C2E7801C844531
:10DAF000D7D80FB0F0BD21886846018043802179D6
:10DB00000171218BC180618B01811C3403946C698C
:10DB10006E46002CEDD02168002902D0304688479F
:10DB200009E06068002806D0A369002B03D02146D5
:10DB3000324608319847E0690028DAD0314603F0D0
:10DB4000D8F80FB0F0BD00210A910B910C910D9106
:10DB5000238869460B854E85638B8B85A38BCB858C
:10DB600021461E3104910C918ECA800040190997FC
:10DB7000089307920691C76A2A21C95D0AA800295D
:10DB800009D000216A4691860090F96C4C37002933
:10DB900003D088470BE0002011E07868002806D009
:10DBA000BB69002B03D039460831009A9847F869C1
:10DBB000002802D0009903F06BF86846808E694611
:10DBC0008883208806A902E02BE073E078E0A8DFD4
:10DBD0006946888B0028B4D1218868460180468038
:10DBE000A1790171618BC180A18B0181049803909F
:10DBF0006C696E46002CA4D02168002902D0304602
:10DC0000884709E06068002806D0A369002B03D08C
:10DC10002146324608319847E06900288ED10FB07E
:10DC2000F0BD049105910691079127886B461F82EC
:10DC30005E82268B9E821032CCCA800040196D46CF
:10DC4000CCC5C56A2920405D04AE002808D06846CE
:10DC50008183E96A2C35002904D0304688470BE0DF
:10DC6000002111E06868002806D0AB69002B03D0C2
:10DC70002946324608319847E869002802D03146E3
:10DC800002F0ECFF6846818B68468180808B00281B
:10DC90000BD10698002808D0012168468171818A3D
:10DCA0000181C18A41810698039020886946A8DFD6
:10DCB0000FB0F0BD296A002900D012E70FB0F0BD07
:10DCC000696A0029F9D10FB0F0BD0000D40E02003E
:10DCD00070B521480078C0073CD11F4801F0A3F877
:10DCE000002837D01D4C0025257165711C4AE56060
:10DCF000A2601C4A65612261E5611B4A25622046DB
:10DD0000A26145621948A5622060204650212C304E
:10DD1000FEF7FAFB2046A0217C30FEF7F5FBE01D64
:10DD2000F930C561056245628562C5620563456378
:10DD30008563FF203D3005552046FF3010213F30E0
:10DD4000FEF7E0FB20460A4A0A4901F024F802489F
:10DD5000C046C046014870BD74280020C02C002079
:10DD60001010020000100200F00F0200880F0200E5
:10DD700000C00100A5DE010010B582B0049C019432
:10DD8000009303681C6913460A460249A04702B083
:10DD900010BD0000FFFF0000FFB587B01446054628
:10DDA000119E00F09FFE00F08DFF07460020864682
:10DDB000009010A80188684601800A980190002E02
:10DDC00007D06A4621460898A4DF00283FD10BB04F
:10DDD000F0BD6979002934D0C807C00F002300289E
:10DDE00008D9DA0052194032928FA24210D05B1C3F
:10DDF0008342F6D30346994223D9D80040197C22A6
:10DE0000125AA24204D080308088A04216D15B1CF6
:10DE1000581C16D098004019C16A2031097889062B
:10DE2000890F0ED008998F420BD069460C81C06AC9
:10DE300020300078C0060DD501200CE09B1C9942D3
:10DE4000DBD86A4621460898A4DF002822D00320A8
:10DE50000BB0F0BD02208872002088810A980590DE
:10DE600010A8049002A93846A6DF0004000C11D0C7
:10DE700008280DD0094988420AD0112808D008493D
:10DE8000884205D06A4621460898A4DF0028DED1E2
:10DE90000520864670460BB0F0BD00000330000040
:10DEA0000134000070B51749054601601835164861
:10DEB00028606C68002C05D02046E46900F01CFF47
:10DEC000002CF9D100266E601048083D28606C686F
:10DED000002C05D02046E46900F00EFF002CF9D19B
:10DEE0006E600B48083D28606C68002C05D0204609
:10DEF000E46900F001FF002CF9D1284608386E6073
:10DF000070BD0000380F0200F00F02000010020088
:10DF10001010020070B50025044605701021401C49
:10DF2000FEF7F0FA6582A582E582204670BD00000A
:10DF3000FFB5044608467D21C90081B04843154617
:10DF400012490A9EFEF7E2FA87B27D212846C900EF
:10DF5000484327800D49FEF7D9FA81B261800498C1
:10DF6000A08004221003A671042F01D2228002E0B7
:10DF7000874200D92080042901D2628002E08142D8
:10DF800000D96080204605B0F0BD0000710200009D
:10DF900010B50B480078C00710D1094800F043FFC6
:10DFA00000280BD00748002141608160C1600161F9
:10DFB0004161054901600248C046C046014810BDA4
:10DFC00068280020602C0020B00F0200F0B4044646
:10DFD000006882B000282CD000251B4F0426606901
:10DFE0004030067060687968009501914001616970
:10DFF000A4300818428B69460A80408B6A46401C50
:10E000004880606901A9808894DF002818D02068C2
:10E0100000280ED0401E206009D000218A0012196D
:10E020009368401E491C53600028F7D120680028DF
:10E03000D5D1606940300178042901D102210170F5
:10E0400002B0F0BC70470000C40E0200F3B58DB002
:10E050000D9D0021203529770E98042200786877DD
:10E06000042800D96A770D980022FF3025300690E9
:10E07000D24342608260C26002610160687F002416
:10E08000002830D90E98E1000E18307900282CD0E5
:10E0900018200D9960434018423000907088099014
:10E0A00000206946087101AF1021781CFEF72AFA9A
:10E0B00069460998C8823946F7883689142200983B
:10E0C000FEF7ACF9009887820098C682687F641CCE
:10E0D000A042D7D80D98FF300130406A002802D006
:10E0E000069800F0C3F80FB0F0BD069801688A00EA
:10E0F000491C12180160546018200D9960434018A3
:10E10000F188328942308182C282DFE7F0B506466B
:10E11000403605468BB0044620356CE06846002248
:10E120000270A71D1021401CFEF7ECF90020694683
:10E1300048823A78002A02D1788A002820D0297FA4
:10E14000182359430919A01D4231002A02D0012A7F
:10E1500008D011E00A78002A0ED1408A498A884204
:10E160000ED009E00A78012A06D11022401C491C71
:10E17000FEF705F9002803D0287F401C28773AE0F5
:10E18000E069002816D00027694605A80F75013000
:10E190001021FEF7B7F96946CF842878002809D105
:10E1A000688A002806D1287F182148430019E169B0
:10E1B0004230884730780128DED1606B0028DBD000
:10E1C000287F1821484300194230838AC18AA288D7
:10E1D0000020E877A87702203070684603854185E3
:10E1E0000AA9104692DF002805D030780228C3D152
:10E1F00001203070C0E73078012820D1287F697F66
:10E2000088428BD30806000E19D0287F002816D02C
:10E210001821484300194030018800276F772F7775
:10E220001148E51DF93581420BD12068416820462F
:10E2300088473770002802D0696D002910D10BB0D3
:10E24000F0BDA088002290DF0028F8D02068416847
:10E250002046884737700028F1D0696D0029EED03C
:10E26000A08888470BB0F0BDFFFF000070B40446E3
:10E27000006883B000282AD01A4E0325606918224E
:10E2800040300570606831680191504361694230E7
:10E290000818828A69460A80C08A488060696A468E
:10E2A000808801A994DF002818D0206800280ED0AB
:10E2B000401E206009D000218A0012199368401E78
:10E2C000491C53600028F7D120680028D6D1606926
:10E2D00040300178032901D10121017003B070BCE5
:10E2E00070470000C40E0200F0B54022135C012705
:10E2F000BA1E85B0032B08D0042B1ED104460B8810
:10E30000FF343D34012B48D04AE005460B88FF35E9
:10E310002535012B02D14B88102B10D028680028FE
:10E320000BD0401E286008D000218A005219936843
:10E33000401E491C53600028F7D105B0F0BD896824
:10E3400010246B460F310E781E70491E5B1C641E34
:10E35000F9D1296800290CD06A68491E296008D0C3
:10E3600000239C006419A668491E5B1C6660002996
:10E37000F7D118214A4310180446423469462770E1
:10E3800010224330FEF74AF86846408840BA60825F
:10E390002846FFF76BFF05B0F0BD4B88132B10D05C
:10E3A00020680028F7D0401E2060F4D000218A00A9
:10E3B00012199368401E491C53600028F7D105B01C
:10E3C000F0BD896810256B4612310E781E70491E0B
:10E3D0005B1C6D1EF9D1216800290CD06268491EB2
:10E3E000216008D000239D002D19AE68491E5B1CDA
:10E3F0006E600029F7D151010D18A83569462F70BC
:10E400001022681CFEF70AF86846408840BA688205
:10E410002046FFF7DBFD05B0F0BDF3B50446274607
:10E4200083B000202037B877049904220978F9775F
:10E43000042900D9FA772546FF353D3528600020AC
:10E44000C0436860A860E8602861F87F0026002863
:10E4500022D90A203146414304980818017900293D
:10E460001CD0428901890292019181796A4611701A
:10E47000438870010019A288A430A16B00F0E0F875
:10E48000F87F761CB042E4D8FF340134E06B0028FA
:10E4900002D02846FFF79AFD05B0F0BD29688A0032
:10E4A000491C5219296056604289018901920091E4
:10E4B000837970010019A288A430A16B00F08CF858
:10E4C000DEE7F0B507460026403704468BB0054628
:10E4D000203443E0684606701021401CFEF712F815
:10E4E00069464E822078002802D1618A00292AD00C
:10E4F000A17F49014919A831002802D0012808D07C
:10E5000029E00878002826D1608A498A88420AD002
:10E5100021E0087801281ED11022601C491CFDF75B
:10E520002EFF002817D1694605A80E75013010216D
:10E53000FDF7E8FF6946CE84A979A81D002902D11C
:10E54000408A002807D0696B002904D0A07F4001D1
:10E550004019A4308847A07F401CA0773878022853
:10E5600022D1A07FE17F8842B4D30006C00C217F76
:10E570004019182280305143008C49194031098BD1
:10E58000401C80B2E677A67788420FD26A46108098
:10E590005180A888694692DF002805D03878022883
:10E5A00004D0207F401C20770BB0F0BD01203870D4
:10E5B000F7E710B504460068416820468847002206
:10E5C00040210A55002806D0FF2055300159002966
:10E5D00001D0A088884710BD30B4039D029C016023
:10E5E000C28344838583017EDA0749084900D20F3C
:10E5F0001143FD2211409A07D20F52001143FB2212
:10E6000011405A07D20F92001143F72211401A0706
:10E61000D20FD2001143EF221140DA06D20F1201BD
:10E620001143DF2211409A06D20F52011143BF223B
:10E6300011405A06D20F92011143017630BC704747
:10E64000F0B585B00A9D0160C2836E460021044684
:10E6500031701F461021701CFDF754FF6846478239
:10E6600014223146201DFDF7D9FE0B9860830C98CB
:10E67000A083207EE90740084000C90F0843FD2120
:10E680000840A907C90F49000843FB210840690752
:10E69000C90F89000843F72108402907C90FC9009D
:10E6A0000843EF210840E906C90F09010843DF21AB
:10E6B0000840A906C90F49010843BF21084069065F
:10E6C000C90F89010843207605B0F0BDF0B50546B5
:10E6D0000068A3B001680968884700287ED18E4889
:10E6E0000078C0077BD18C4800F09DFB002876D0D5
:10E6F0008A4C8B486560206025468A49083512910E
:10E700002095012108A801750DAF10211530FDF7E6
:10E71000F9FE002610A8C6801022781C1299FDF779
:10E720007DFE12993B46C87889780002084341BAB9
:10E7300010A8C1802146E03115911F9118220227AF
:10E740001A92199101201897287010A8C088688221
:10E750001022591C681CFDF761FE199A6A612F830B
:10E7600018986883AF83EE83284620301A99017089
:10E77000012141706E62067246728672EE622E63ED
:10E780006E63AE63EE632E646E64AE64EE642E65FB
:10E790006E65AE65EE652E666E66AE66624908A869
:10E7A00012910121017007466C351021401CFDF7C4
:10E7B000A9FE684646861022781C1299FDF72EFEA7
:10E7C00012992246C87889780002084341BA6846FF
:10E7D0004186E23214213846042301E098E096E0B5
:10E7E0001A9303461B9219921891012028706846CB
:10E7F000408E0F4668821022591C681CFDF70EFEE1
:10E80000199A6A612F83189B6B83AF83EE83284626
:10E8100020301A9B0370012141706E6206724672AD
:10E820008672EE622E636E63AE63EE632E646E6478
:10E83000AE64EE642E656E65AE65EE652E666E6640
:10E84000AE661F9A142116801B98FDF75BFE3748B1
:10E850000078002858D11599FF2008701599344F79
:10E86000487020981C9068461D95159008AD1021A1
:10E870002130FDF747FE6A46568610223946681C4D
:10E88000FDF7CCFDF878B9780002084340BA6A4633
:10E8900050861598012313702946538E53821CAD60
:10E8A0001022401C491CFDF7B9FD02206A46107574
:10E8B0000695968360680068016849698847016821
:10E8C0000A68694690471B4818490660012008708D
:10E8D000194960680D6849681391006801684969C1
:10E8E00088470746202000F00FFA1399066006615A
:10E8F0004661C66185604460C16010498161796983
:10E90000002907D0C16178610348C046C046002095
:10E9100023B0F0BD7861F7E704280020C428002068
:10E920002C0F0200500E0200600E0200C0280020D2
:10E93000400E020000280020700E0200C50C0200EC
:10E9400002207047022070470220704701688968E2
:10E95000084710B50A4604690346011D204601F028
:10E96000F7FF10BD10B50269011D104602F035F821
:10E9700010BD000010B5044606482060002060600D
:10E98000A060E06001F022F90349206102F045F83F
:10E99000204610BD241102004DE9010010B50446C7
:10E9A00003482060211D206902F017F8204610BDA1
:10E9B0002411020070B50D460446FFF7D3FF6561D0
:10E9C000206902F007F8616941182046FFF7C1FF8E
:10E9D00070BD10B50446FFF7C5FF0020A061E062DE
:10E9E00010BD10B504464068616941182046FFF724
:10E9F000B0FF2146E26A1831A069002A04D000283D
:10EA000001D0091D904710BD0028FCD0804710BDE3
:10EA100010B50446044820602046FFF7DAFF204680
:10EA2000FFF7BCFF10BD00003811020070B50546AD
:10EA3000C068002400280EDD6868A10041584A69BA
:10EA40000868002A08D0002801D0091D9047E8680E
:10EA5000641CA042F0DC70BD0028F8D08047F6E7C7
:10EA600070B504460848206000206060A160E06046
:10EA70008800054600F044F92A460021FDF70FFD05
:10EA80006060204670BD00004C110200F8B50446DD
:10EA90000B4820600025E0682F4600280ADD6068EA
:10EAA000AE00805900F028F960686D1C8751E0685D
:10EAB000A842F4DCE760606800F01EF92046F8BD6B
:10EAC0004C11020048DF704710B5FFF701F910BD87
:10EAD00010B500F065FA002010BD10B500F002F886
:10EAE00010BD7047F8B535480078C00763D133488A
:10EAF00000F099F900285ED0314C324921600022A3
:10EB0000A0212271E18027460A3722811F21384641
:10EB1000FDF7F8FC012600257602FD773E847101A1
:10EB200020462B460A462C300095FFF701FA044692
:10EB3000074608372C3C1F213846FDF7E3FCFD77DC
:10EB40003E845C20A565055525666566A566E56677
:10EB5000256765672046A5676C30E5674561856177
:10EB6000C5612030056045608560C560056145610F
:10EB70008561C56104212030FFF772FF0446064617
:10EB8000A23EAC3C1F213046FDF7BCFC2046F57789
:10EB9000343006461F21FDF7B5FCF5770A492160A0
:10EBA0006A1EBC210A532046084A094900F0F3F8BE
:10EBB0000248C046C0460248F8BD00007828002040
:10EBC000102E002020100200C010020000C0010022
:10EBD000D1EC0100084678DF002800D00320704700
:10EBE00038B56846112202700C460846FDF7F4FB62
:10EBF00082B2214668467CDF002800D0032038BD61
:10EC000030B4044674DF002802D030BC03207047C3
:10EC1000A06D40084000A06530BC00207047000097
:10EC20000A78012A01D10220704710B4044601205D
:10EC30008003032A4A8887B01ED0202A18D3824234
:10EC400016D88888134A904212D80020009001906C
:10EC500002900390049005900B786A46137010722E
:10EC60004888108288885082684673DF002808D060
:10EC700007B010BC03207047A02AF9D38242F7D80E
:10EC8000DFE7A06D01210843A06507B010BC00209C
:10EC900070470000FF3F000030B40C46C97F1F29B9
:10ECA00002D9012030BC7047002908D0D37F20460C
:10ECB00072DF002803D1208C78DF0028F2D030BC2E
:10ECC000032070478030808F704780308187704785
:10ECD00010B503490160AC30FFF7D8FEAC3810BD69
:10ECE0002010020040300078002800D0012070473A
:10ECF000002070471420704710B5FDF772FF10BD5B
:10ED000010B500F001F810BD10B5040008D10124C1
:10ED100006E0FDF72DFF0068002800D1034880477A
:10ED20002046FDF72DFF0028F3D010BD3BCC01009D
:10ED30000021017041708170C17001717047002124
:10ED4000017041708170C170017141717047002183
:10ED5000018041808180817170470A7802704B7810
:10ED600043708A788270CA78C2700B7903714A79CD
:10ED7000427170470A7802704B7843708A788270CB
:10ED8000CA78C2700B7903714A7942718A798271AB
:10ED9000CB79C3717047F7B507460E4600251020A2
:10EDA000FDF7EEFE04000AD06760A6600298E060FE
:10EDB000FDF7E2FE0168216004602846FEBD0125E2
:10EDC000FBE7FFB581B01C4617460E0007D0019D3A
:10EDD00002E02846B047ED192046641EF9D201989A
:10EDE00005B0F0BDF8B50646FDF7C6FE009015E08B
:10EDF000002E04D0E068B04201D025460FE0206824
:10EE000028600098A1680768606888472046FDF779
:10EE1000E8FE00980068B84201D0009805462C68CA
:10EE2000002CE5D1F8BD0168002901D00020704711
:10EE3000012101600846704710B50020FDF7F7FE7C
:10EE400010BD000010B5044804490160044A05499A
:10EE5000FFF7A1FF10BD00009428002084100200DD
:10EE600000C00100E3EA010010B50648FFF782FD8B
:10EE700000228261C26204490160044A0449FFF72A
:10EE80008AFF10BDC02F00203811020000C0010011
:10EE900011EA010010B5084CFEF760FB206007483E
:10EEA0000022026042608260C260026112214261FF
:10EEB00000F0D0FE10BD00000C280020BC2900206E
:10EEC00002486A46C008C000704700004330002076
:10EED0000004000C07D1BFF34F8F04490248C860FB
:10EEE000BFF34F8FFEE770470400FA0500ED00E026
:10EEF00038B50246074814230178074C59430818CF
:10EF0000C36801791B01E458C388009343690C303E
:10EF1000A04738BDF02F00201C30002070B51948E4
:10EF200000688047B12044DF002803D0002211464A
:10EF3000FFF7CEFF11DF002803D000221146FFF7B4
:10EF4000C7FF114C606913DF002803D0002211466F
:10EF5000FFF7BEFF01210D4A880510600C4A002012
:10EF600013680C4D0A4682401A4204D0C606F60EBB
:10EF70000A46B2402A60401C2028F3D3606900F0A2
:10EF80000BF870BD982800200010001080E200E00F
:10EF900000E100E080E100E010B5FDF703F910BDED
:10EFA00000B5204885B08069C00701D0082000E086
:10EFB0000D201D4B48221D4901F0E2FB002802D024
:10EFC0000004000C09D01A490868496800900191B2
:10EFD000684660DF002810D107E0BFF34F8F164965
:10EFE0001448C860BFF34F8FFEE702A871DF002806
:10EFF00003D102A970DF002802D0072005B000BDB0
:10F000000E4801F0B3FB0004000CF7D10C4801F0EE
:10F01000D3FB0004000CF1D1FEF734FA002005B058
:10F0200000BD00000005004079D40100782C0020CC
:10F03000CC0E02000400FA0500ED00E0E9D2010068
:10F0400055D50100F8B5394914230A780F205A43E1
:10F0500054183749227926698F88241D022A24D022
:10F0600001252D07042A33D0052A1DD1286981B234
:10F070003046FDF74BFA0146A38828699A1980B2F9
:10F080004843101A820860881818861928694B1C92
:10F0900080B25843801B8308204601F099FB00286A
:10F0A00002D1224901228A70F8BDB8026288216922
:10F0B000121A0918A3883018181801239B029A42C3
:10F0C00002D2920829DFEAE7FF22013229DFE6E7D0
:10F0D000A368184819010818018942894068B0429C
:10F0E00003D160885143814218D0022B16D0286981
:10F0F00081B23046FDF70AFA0146286980B24843DA
:10F10000301A820828694B1C80B2584363889B19C7
:10F11000C01A8308204601F05BFBC0E7286981B272
:10F120003046FDF7F3F9C01928DFB8E7F02F0020CB
:10F130009C2800201C300020F8B5134C069E6578F2
:10F14000022D1ED027787D19EDB2022D01D3AD1E00
:10F15000EDB214277D432D1928716A61086849684A
:10F160002961E860EB802E81A1780020002904D17C
:10F17000FFF768FF112800D100206178491C6170F9
:10F18000F8BD0420F8BD0000F02F0020F0B591B0CC
:10F1900086468C46189E199D1A9C1798D10601D454
:10F1A00091060BD500216F460191BF79F9213940B5
:10F1B0006F46891CB9711121397179710027029745
:10F1C00003970497059706970797694608970A7269
:10F1D000D10601D4910601D501A900E000210791D3
:10F1E000002C05D0002D03D0694603950C824C827B
:10F1F0006C460097A178F72421401B9CE400214332
:10F20000EF2421401C9C24012143C9B2F924214050
:10F21000891C6C46A170B04202D00124214301E058
:10F22000490849006C46A170910703D4D10601D466
:10F23000910610D5062B0ED2190079440979491888
:10F240008F440902050717191121217003E02121BC
:10F2500000E031212170110701D4510716D5062B8A
:10F2600014D219007944097949188F440F06090C02
:10F2700020231221EEE72221ECE71121617005E045
:10F280002246212101E022463121517061460B9135
:10F290000D970E970C94A086268716980F900BAAB0
:10F2A00002A970461D9BA2DF80B211B0F0BD2246BC
:10F2B0001221EAE722462221E7E7F0B488B00027CE
:10F2C0006D460097AC78F9252C4084460C9EA41C12
:10F2D0000D986D46AC70B34202D001252C4301E07D
:10F2E000640864006D46AC7011242C706C7002913F
:10F2F0000497059703952B82AE820692024602A9D7
:10F300006046A3DF08B0F0BC80B27047F0B587B0AC
:10F310000446408A694608800020887021780120D0
:10F320008E4600290BD000A8334A02308446136869
:10F33000611C0020314D002B17D9002206E06946E0
:10F34000887054E0022A2BD0032A27D006018619A0
:10F350007619B65C8F5CBE4202D1521C102AF1D3E2
:10F36000102A1FD0401C9842E7D32646002771463A
:10F37000123600291DD0601C69460F71102202A9A7
:10F380000F3003780B70401E491C521EF9D101A9A1
:10F3900002A863DF00280ED038460EE00422D5E72D
:10F3A0000322CFE7010140184019017C604601703B
:10F3B0001DE03046E0E768460079694688702278AB
:10F3C000002A17D0611C0C4C0646206808280ED075
:10F3D0000201801840191022FDF720F82068010171
:10F3E000411849198F70CF700E74401C206000982E
:10F3F00007B0F0BD3146E6E7602800206F2A002004
:10F40000F0B50E4683B0044681786A46224801F082
:10F4100003F8002825D160780C21204F4843C019FB
:10F42000807A40061FD4022E1DD0012E1DD01C4D07
:10F43000A0781C2148431B49002341181C22684620
:10F44000A847002813D0022E0BD020780C21484367
:10F4500015494018807A154980000A5821466846A7
:10F46000904703B0F0BD124DE2E7124DE0E7022EE7
:10F47000F7D060780C214843C019817ABF2211402F
:10F48000817260781C2148430B4941181C231A469D
:10F490006846A847D9E7000088280020742F00207C
:10F4A000CD070200D02E0020802F0020F40E020095
:10F4B000E906020065050200402F002070470000A9
:10F4C000F0B595B0002105460A91FF20FE49059050
:10F4D0000978002951D0FD49096800294DD06946B5
:10F4E00048718871C87100210D91291D03912A234B
:10F4F000694600200B820871F54C06462A88E17A9D
:10F50000A07A102A0DD0AA880223184209D0F14B04
:10F510009A4202D02389934203D16B46002299710B
:10F520005A71EA4F2B88EC4A7F7A172B6FD017DC81
:10F53000EA4F102B3F8B0997E84FBF8E0897E84F93
:10F54000BC463F8A07976746BF8D18D0112B73D0F2
:10F55000132B72D0142B10D10022FF296ED0F2E0B1
:10F56000DA49897A8900182B69D01C2B68D0522B74
:10F5700003D1DC48415801A8884715B0F0BDC00749
:10F58000C00FFAD00221A172112269460A7200202E
:10F590004871A888208120460722A91DFCF73EFF5C
:10F5A000687DC10706D04108CF48405CFF2832D1B2
:10F5B000059831E0C748AD1D1CD007222946CB482D
:10F5C000FCF7DDFE002823D007222946C848FCF7B7
:10F5D000D6FE00281ED007222946C648FCF7CFFEDB
:10F5E00000282ED007222946C348FCF7C8FE002871
:10F5F0000BD0CCE1099981420AD00899814209D007
:10F60000079981421DD0874261D1032003E0FDE0CC
:10F61000002000E001200590C1B2E172A27A082327
:10F620001A43A2726846817101AD08AAB34800F07E
:10F63000F3FE002807D0AAE119E08DE048E07EE162
:10F64000A2E10220E7E7684640791C214843AC4923
:10F650001C2340181A4608A900F03EFF9B48807AF8
:10F660008100A8484258294608A890478FE1FD210B
:10F670000840A072010706D5C00923D0002101A8C7
:10F68000FFF7BEFE1EE068468779FF2F1AD01C20C8
:10F690003946414391480D1828461130FFF74FFB7A
:10F6A00028461021FCF72EFFFF2028740021A876A1
:10F6B000C9432983844901224B68BA4093434B6074
:10F6C000694688711021A1721220694608725EE1B4
:10F6D000E989099B8B4219D0089A8A4218D0079A67
:10F6E0008A4218D08F4230D1032105910599082212
:10F6F000C9B21043E172A0726846817101AE06AAD8
:10F700007E4800F089FE002807D019E00592EDE759
:10F7100001210591EAE70221E7E7684640791C21CB
:10F72000484377491C2340181A4606A900F0D4FE26
:10F730006648807A810073484258314606A890474F
:10F74000E07AFF2801D06E480A90644AA888002316
:10F750000A9982DF15B0F0BD13236F463B72042374
:10F760001843A072FF2924D01620387210460E21AB
:10F77000FCF7CAFEA17A40221143A1720C2100209D
:10F78000714309191190C97A1C225143534A1390AD
:10F79000891812911C217143703289180E910F90B3
:10F7A0001090A8880EAB584A00217FDF0028D1D1E5
:10F7B000EDE005A8554B494A2146002708901C203A
:10F7C00078438018807EFF2804D07F1C042FF6D356
:10F7D0000D93D3E70878022809D01C2078438018BD
:10F7E000FD22827607221030FCF718FE04E01C2070
:10F7F00078438018FE21817608986946077005983D
:10F8000088710C2171430919C872B7E77B082F4A28
:10F810005B005372FB231840A07214236F463B72A7
:10F82000AB792246002B29D00F4606AA334800F0B8
:10F83000F3FD00281FD1542106A800F017FE002870
:10F8400019D11C200897474324483F1838461130E7
:10F85000FFF775FA38461021FCF754FEFF21397482
:10F86000B9760020C04338831748089F01214268B9
:10F87000B9408A434260A8790D9088E0EB795B0734
:10F880005CD5BB79FF2B59D0082738439072E87AB2
:10F89000800708D51C201D46454310482818857E42
:10F8A0006D086D008576FF2971D02078022836D04A
:10F8B0001C200A4D43431146581907221030FCF70B
:10F8C000ADFD6846807923E07C280020802F002051
:10F8D000742F0020FFFF0000642F0020D02E002096
:10F8E000102F0020140F020084280020E02E00209A
:10F8F000FC2E0020182F0020342F00208828002004
:10F90000402F0020040F0200842F002043800000BD
:10F910001C2148434019817EFD22114009E02948FD
:10F92000418A1C204343284818180183817E4908D6
:10F9300049008176012101A8FFF762FD27E0AB793C
:10F940001D09012D15D11B071B0F012B11D1030719
:10F950000FD510460E21FCF7D7FD16206946087218
:10F96000A17A60221143A172184802210F43477205
:10F970000DE080221043A0721522684602721448DE
:10F98000415801A8884702E01320694608720F4BCE
:10F9900001A81B6802A90D9A98476846007A1228A8
:10F9A00000D0D7E60C2046433019817A0129F8D0DF
:10F9B00001218172891E0181FF21C172FFF7C7F900
:10F9C00015B0F0BD402F0020D02E0020802F002049
:10F9D000140F0200012000F000F8002801D000F010
:10F9E00061FCFEE700207047002070470020704750
:10F9F000F8B50546407818214143254A0C238A185A
:10FA00009446584300245268224B2746C018264685
:10FA10009646002A0BD0837A1A46DB0907D0530694
:10FA200005D41B4A6446734656589FB20834008971
:10FA300033463A462146A9DF0B281BD0002800D0C8
:10FA40001548012E15D168780C2148431149134AF5
:10FA5000401800890C21A7DF00280AD010498842ED
:10FA600013D0082811D0891C88420ED011280CD040
:10FA70000020F8BD68780C2148430649012340184E
:10FA800000893A462146A9DFDDE70348F8BD0000BA
:10FA90005C2F0020742F002041800000FFFF000039
:10FAA0000230000070B50C46014660781822084DFF
:10FAB00050434019382300F00FFD002807D161782A
:10FAC0001822514349194A68521C00D14A6070BD3E
:10FAD0005C2F0020F3B585B00D460E2069460882E4
:10FAE00068780C2103274843244E3B46801900893F
:10FAF00004AA6946AADF00283DD168781821484346
:10FB00001F4C694600190A8A0830FCF738FC0028A7
:10FB1000687807D01821484301194968002912D094
:10FB2000184E11E00C2141438919897A890722D4A2
:10FB30001821484300190021016041608160C160C3
:10FB40000161416117E0104E27506846028A6878CB
:10FB500018214843001942606878484300196946F3
:10FB60000830FCF741FB6878182148430119382315
:10FB700018220598B047002007B0F0BD742F002070
:10FB80005C2F0020E90602006505020010B5FFF7B2
:10FB90002FFF10BD70B50C46014660781822084D45
:10FBA00050434019382300F097FC002807D16178B2
:10FBB0001822514349194A68521C00D14A6070BD4D
:10FBC0005C2F002010B5FFF785FF10BD004870477F
:10FBD0009C0E020070B50446002020560D46401CC5
:10FBE00004D12A220A490BA000F03AFB0F48002D4D
:10FBF00008D0012D05D10022A25601219200101833
:10FC0000016070BD0021625692001018016070BD45
:10FC1000A01102006F626A2D3E70696E20213D20A6
:10FC20002850696E4E616D65294E430000070050F3
:10FC300001704A1C0AD001228A4005494260C16015
:10FC4000091D0161091D4161091D816070470000A6
:10FC50000805005070B50D4604460026FFF7E8FF82
:10FC60006D1C12D0A057401C04D12422074908481B
:10FC700000F0F6FA21696068086001212046FFF76C
:10FC8000A9FF3146204600F035F870BD541102003E
:10FC9000DCFC0100F8B504460E4600271546FFF7C8
:10FCA000C7FF761C16D0E057401C04D124220A4915
:10FCB0000AA000F0D5FA6068002D01D0E16800E0EC
:10FCC0002169086001212046FFF784FF394620465C
:10FCD00000F010F8F8BD0000541102006F626A2DA8
:10FCE0003E70696E20213D202850696E4E616D6521
:10FCF000294E430010B502460020105600F068FB64
:10FD000010BD0000F8B51E4C2078002837D02069BF
:10FD1000002807D00026E068002805D00025002E26
:10FD200004D013E00126F6E70125F8E7684651DF25
:10FD3000052806D0002806D000221146FFF7C8F893
:10FD400004E0012602E0216900988847002D12D1C5
:10FD5000608869460880A06861DF052806D0002811
:10FD600006D000221146FFF7B3F804E0012502E0B7
:10FD7000E168A0688847002ED8D0002DCFD0F8BD0C
:10FD8000A8280020FE4C00202056E6B0401C04D1DC
:10FD90002422FC49FC4800F063FAE16860680860CE
:10FDA0003AA8FEF7E7FDF949016000218161C162CF
:10FDB0000C46F74A45943AA8F6494092FEF7FAFDF8
:10FDC000F548FEF783FCF44800680168C968884775
:10FDD000F2498166032160ABEF4819740190F04E3F
:10FDE00001AD02A8FEF7A4FF6B461C72ED48FCF7BC
:10FDF000A7FE01467F20400608436B460104587267
:10FE0000090E99720102090ED972000E1873284664
:10FE10000C305D905C9053AF50AB1C731021781C7C
:10FE2000FCF770FBE04850ABD88339462B1D1222FB
:10FE30005C9805276293639261976B461C74DA4A5B
:10FE40005A841022401C491CFCF7E8FA629B099373
:10FE50006B461F85619A5A859F85DC8508AB639A3E
:10FE60001A7401275F740D941C765C769C76284684
:10FE7000119412940F94169417947830109413944C
:10FE800014941B941C941594189419945C90589095
:10FE90001A941D944EAD48AB1E941C761021681C1C
:10FEA000FCF730FBC14850AB5881589818AB1C7711
:10FEB0002946BE4A20ABDA8164AD1022401C491CA1
:10FEC000FCF7ACFA249520AB9F82DF821F835C8312
:10FED000022018775F7728AB28941C715C719C71A5
:10FEE0002B942A942D9430942F94329435942E94FC
:10FEF000349437945D98339439945A902C94389470
:10FF00005C9831944EAD5B90369446AF1021681CDE
:10FF1000FCF7F8FAA64850AB588140AB28461C764F
:10FF2000A3495985411C5AAD1022781CFCF776FA7A
:10FF3000022048AB187340AB4C959C860198006832
:10FF400001684969884701680A6846A9904792484C
:10FF500000680168C968884705460A30479006214D
:10FF600048AB1973044601274BA849974A90E07F94
:10FF7000C11C1F2920D8001902220121FCF79DFA7B
:10FF8000E07F3A46401CC0B2E07700190121FCF73F
:10FF900094FAE07F401CC0B2E0770019499A4A9970
:10FFA000FCF73CFAE07F2A46401CE07729682846A7
:10FFB0004B6D343247999847774F38680168C96864
:10FFC000884705462C460A3403227A480221479482
:10FFD0004C9249914A90E07F011D1F291FD80019BA
:10FFE0000121FCF76AFAE07F0121401CC0B2E077F2
:10FFF00000194C9AFCF761FAE07F401CC0B2E07730
:020000040002F8
:100000000019499A4A99FCF709FAE07F2A46801CB0
:10001000E077296828464B6D34324799984738680D
:100020000168C968884705460068634CC26B214671
:100030002846904728460A3040A947900C866C8590
:10004000044619204B904CA84A9002204990E07F2A
:10005000011D1F2920D8001903220121FCF72DFAC8
:10006000E07F0121401CC0B2E07700194B9AFCF7F9
:1000700024FAE07F401CC0B2E0770019499A4A99FF
:10008000FCF7CCF9E07F2A46801CE07729682846F7
:100090004B6D3432479998473F4800680168C968FA
:1000A0008847054609204A900B2049902868434F0D
:1000B000426B3946284690474A982C460A344A975C
:1000C0004B90E07F499F01460D311F2920D8001930
:1000D0000C220121FCF7F1F9E07F0121401CC0B2A4
:1000E000E07700194B9AFCF7E8F9E07F3A46401CAC
:1000F000C0B2E07700194A99FCF790F9E07F2A46F0
:100100000B30E077296828464B6D343221469847FA
:10011000214C20680168C968884700210171206866
:100120000168C9688847074600687D258168ED0039
:1001300038468847A84204D93868816838468847D5
:1001400005467D212846C90048431D49FCF7DEF9D4
:10015000F88020680168C9688847016802464B6DCD
:100160003432014605460A3198472868291D826DB8
:1001700028469047134D2878002865D0206823E052
:10018000BC2900205411020038D5010038110200AA
:10019000DDD4010040420F000C28002071D6010080
:1001A00066661E42FF7F77451C2A00001D2A00005C
:1001B00009180000780E0200010300007A0E020008
:1001C00071020000082800200168C9688847806D16
:1001D000800739D5002028703046FCF787FC1D4A7F
:1001E0001D4BFCF753FCFCF797FA064601A8489014
:1001F0000198374600680168C9688847806D8007A4
:10020000B9D53846154900F0C3FDFCF799FC7F21AC
:10021000490601436B4608045972000E98720802A1
:10022000000ED872080E18730198006801684969B9
:1002300088476B46D98D002300930368489ADF688E
:100240000523121DB84796E720680168896A884728
:1002500091E700009A9999999999B93F0000C8428D
:1002600013460A4610B5014601A0FFF7B3FB10BDC7
:100270006D626564206173736572746174696F6E19
:10028000206661696C65643A2025732C2066696C70
:10029000653A2025732C206C696E65202564200A40
:1002A0000000000098B012216846FFF7D3FC13212C
:1002B00006A8FFF7CFFC12210CA8FFF7CBFC1321F7
:1002C00012A8FFF7C7FC694600200856401C04D15D
:1002D0002422344934A0FFF7C3FF03990198086032
:1002E000694618200856401C04D124222D492EA00E
:1002F000FFF7B6FF0A990798086008A9102008566A
:10030000401C04D12422274927A0FFF7A9FF1099F8
:100310000D98086010A908200856401C04D124221A
:10032000204921A0FFF79CFF15991398086096209B
:1003300000F086FC694600200856401C04D12422A7
:10034000184919A0FFF78CFF0499019808606946C5
:1003500018200856401C04D12422124912A0FFF78D
:100360007FFF09990798086008A910200856401CCB
:1003700004D124220B490CA0FFF772FF0F990D98AE
:10038000086010A908200856401C04D12422054901
:1003900005A0FFF765FF169913980860962000F0F6
:1003A0004FFC90E7541102006F626A2D3E70696E37
:1003B00020213D202850696E4E616D65294E430015
:1003C000704770470020704700207047002070473A
:1003D00070B504460D46401C04D11A22074908A0F6
:1003E000FFF73EFF0B48A100081801680C2291435B
:1003F00001600168AA001143016070BDE8110200AC
:1004000070696E20213D202850696E4E616D65290E
:100410004E43000000070050124B1B78002B05D004
:10042000002801D0002A03D10E2070470820704711
:1004300030B40468002C0DD10B4B1D68002D09D081
:1004400045681889414369185D89454358682818EB
:10045000884202D830BC072070471460516030BC1D
:10046000002070479C2800201C300020F8B504466E
:1004700017480E460078002805D0002C05D02068CB
:1004800000281BD103E00820F8BD0E20F8BD11495B
:1004900000250868002811D048890A894968504316
:1004A00043186068834209D9830701D01020F8BD42
:1004B000401A1146FCF72AF8002901D00720F8BDA0
:1004C00033460022214604200095FEF735FEF8BD94
:1004D0009C2800201C300020F8B507461F4816460F
:1004E00000780D46002807D0002D07D0002F05D03A
:1004F0002868002817D103E00820F8BD0E20F8BDB9
:10050000174C206800280ED0608921896268484312
:1005100082186868824206D9002E04D0B14202D304
:10052000F2188A4201D90720F8BD394619438907D4
:1005300001D1810701D01020F8BDC11832463846DC
:10054000FBF76CFF009628680022000124583B4608
:1005500003212846A0470020F8BD00009C28002069
:100560001C300020F8B50C461A490978002907D03C
:10057000002C07D0002805D00168002917D103E01E
:100580000820F8BD0E20F8BD13490D68002D0ED0CF
:100590004E890D8949686E43761841688E4206D9A6
:1005A000002A04D0954202D3D618AE4201D90720C2
:1005B000F8BD25461D43AD0701D1890701D01020A4
:1005C000F8BD00931346014622460220FEF7B4FD13
:1005D000F8BD00009C2800201C30002040498A788B
:1005E000012A7CD1F8B500243E4A8C705378082B40
:1005F00007D0022816D0032802D10D20FEF778FC80
:10060000F8BD02280CD0147048780028F8D0FEF706
:1006100019FD0028F4D01128F2D0FEF769FCF8BDCE
:100620005470F1E72E4814250178694308182D49C4
:100630008A88521C95B28D800279001D022A05D14C
:100640004688A902B14201D3012600E00026052A0E
:1006500001D1072B03D00021042A02D003E001219D
:10066000FAE7072B03D00027042A02D007E001276E
:10067000FAE74088AA02824201D3002B2DD0002045
:100680003943014331431CD0164D20466C70FEF7B0
:100690002FFC134814220178514309180C71CC80A7
:1006A0000C6101224C61CA600C81AC804178491E0A
:1006B00041700178491CC9B20170022901D3891E19
:1006C0000170074840780028A9D0FEF7BBFC00283D
:1006D000A5D01128A3D0A0E701E00120D0E7704702
:1006E000F02F00209C280020F8B50C461A49097804
:1006F000002907D0002C07D0002805D00168002968
:1007000017D103E00820F8BD0E20F8BD13490D688D
:10071000002D0ED04E890D8949686E4376184168C8
:100720008E4206D9002A04D0954202D3D618AE4292
:1007300001D90720F8BD25461D43AD0701D1890722
:1007400001D01020F8BD0093134601462246052033
:10075000FEF7F2FCF8BD00009C2800201C300020B1
:1007600010B508461146C046C04610BD002803D04B
:100770000249C860002070470E207047A82800205A
:10078000002901D10720704730B48C0702D0072020
:1007900030BC7047064CA16062800649636010DF80
:1007A0000028F5D10120207016202EDF30BC7047C4
:1007B000A828002061070200002803D00249086130
:1007C000002070470E207047A828002000207047A6
:1007D000FFB581B00F465C4D049B039906466A78CD
:1007E000194303208E46002A03D1002912D001218B
:1007F0006970039A554B697892001C04009207298E
:1008000078D20A007A4412799218974473051E31FF
:100810004D7584000221EBE75869401C05D0206922
:1008200081B25869FBF772FE00E060692169401EE1
:1008300089B24843216909048A0C216989B2794344
:1008400029DF002856D1022153E0384628DF00284E
:1008500050D10399002901D003214AE004990029CD
:1008600004D13178042940D1072142E0042140E03D
:100870005869401C05D0206981B25869FBF746FED3
:1008800000E060692169401E89B241432069039AF2
:1008900080B2784329DF00282CD104990029E5D1C2
:1008A0003178042924D020E05869401C05D0206903
:1008B00081B25869FBF72AFE00E060692169401E99
:1008C00089B248437188421800981018226992B280
:1008D0007A4352180099531801461846049A29DFA2
:1008E000002807D13178042902D0052101E001E078
:1008F0000621697005B0F0BD2069009980B2784387
:10090000401871888A08316929DF0028F2D17146C0
:100910000029EDD1A8E75869401C05D0206981B2B3
:100920005869FBF7F3FD00E060692169401E89B258
:100930004843216989B2FBF7E9FD28DF0028D9D1B6
:100940000721697005B0F0BD9C2800200010001040
:1009500070B50D4672B64B600A60436800215C6852
:10096000002C0CD02668961B03D42146A468002CCA
:10097000F8D1002903D08D60AC6062B670BD5D60B7
:100980000068016910468847F6E710B5044600681C
:10099000C0688047606840680028206811D04068BF
:1009A000804761680246486803689A1A002A0BDC8F
:1009B00082684A60616809680029EBD0406888470E
:1009C000E8E78068804710BD4868216800680969C9
:1009D000884710BD00684068004710B572B643688C
:1009E0005A688A420DD189685960002905D000688B
:1009F00009680269084690470DE0006880688047F2
:100A000009E0002A07D09068884202D18868906087
:100A100001E00200F7D162B610BD70B5044600686F
:100A20000D46006880476068056070BD024900207F
:100A300048600249086070470011014040110140C0
:100A400006484178002907D00121054A0904916030
:100A5000044A916000214170704700005428002032
:100A6000001301404013014070B5104C207800285D
:100A70001BD10F4988600F49022088600E494860E9
:100A80000E490868FF2212029043032201259203B7
:100A9000104308600A49680408600A4908600A4867
:100AA00005602F20FBF76EFB257070BD54280020D9
:100AB00000150140401301400013014010E400E024
:100AC00080E200E000E100E00010014010B50248C3
:100AD000FFF75BFF10BD00009C0E020010B5114C2B
:100AE0002078002801D1FFF7BFFF0F48416800229E
:100AF000002906D06168491C616042600B490220F0
:100B0000886060681106030A1943094B00065B6898
:100B100011431843074A0023FBF798FB4904C00B15
:100B2000084310BD5428002000110140401301402B
:100B30000015014040420F00F8B5394C05462078B9
:100B4000002801D1FFF790FF364F78680021364E1C
:100B5000002805D06068401C606079600220B060A9
:100B60002F4840680C46020A090611432F4A000626
:100B70005268214310432E4A0023FBF767FB0246CD
:100B80004804D20B0243C90B601961410123DB0702
:100B90009A4204D99D4202D20122001C5141420CCA
:100BA000C903244B1143C0030022C01851415A1CF1
:100BB0000023FBF763FB1A494A78002A02D08A68AF
:100BC00090422CD07A68002A05D04A68521C4A60AC
:100BD0007C600222B2604A68144B12065D682A43A8
:100BE000821A022A0DDC7868002805D04868401C6B
:100BF00048607C600220B06048685A680006104374
:100C0000801C02020C4B120A1A6088604878002887
:100C100005D1012048700004B06008494860F8BD63
:100C200054280020001101404013014000150140EC
:100C300040420F003F420F004015014000130140A9
:100C400070B57D21C90048430446FFF747FF0546BC
:100C5000FFF744FF401BA042FAD370BD70B50D46AC
:100C600001680446002902D02846884709E06068E8
:100C7000002806D0A369002B03D021462A4608315C
:100C80009847E069002802D02946FFF7E7FF70BDCA
:100C900070B50D4601680446002902D028468847F1
:100CA00009E06068002806D0A369002B03D0214624
:100CB0002A4608319847E069002802D02946FFF704
:100CC000E7FF70BD30B583B0044615466846FEF7B1
:100CD00051F80198019940100019C90707D00099EF
:100CE000026851180B682946984703B030BD009B35
:100CF000F9E770B50D4601680446002902D0284680
:100D0000884709E06068002806D0A369002B03D05B
:100D100021462A4608319847E069002802D0294632
:100D2000FFF7E7FF70BD70B50D4601680446002966
:100D300002D02846884709E06068002806D0A369E9
:100D4000002B03D021462A4608319847E069002845
:100D500002D02946FFF7E7FF70BD70B50D46016868
:100D60000446002902D02846884709E06068002828
:100D700006D0A369002B03D021462A4608319847A4
:100D8000E069002802D02946FFF7E7FF70BD0000A8
:100D900070B5420064414B005C41120E39D01B0E0D
:100DA00038D0FF2A3CD0FF2B3AD040024902400AFB
:100DB000490A060045184E43000A090AD21848435A
:100DC000ED017F3A0104731A4019190C4318990F69
:100DD00004D001215B0849075B1A521CD80904D3CF
:100DE000401CF50301D19D0607D0FF2A08D2D50586
:100DF00006D0E4072043401970BD0125A843F4E75D
:100E0000002A01DCE00770BD2402FF202043C0055A
:100E100070BD1B0EFF2A03D0FF2B01D0E00770BD71
:100E2000FF2645003606B54206D84D00B54203D828
:100E3000D218FF2A00D0E7E7004870BD0000C07F4D
:100E4000000015301212EFDE1523785FEABCD123C3
:100E5000000015311212EFDE1523785FEABCD123B2
:100E6000000015321212EFDE1523785FEABCD123A1
:100E70000000000001000000091844656661756CFF
:100E80007441707000000000690A0200DD0A02006F
:100E9000410A02002D0A0200390B0200880E0200EE
:100EA00010280020000000000000000000000000EA
:100EB0000000000000000000000000000000000032
:100EC00000000000002801000328010001000000CC
:100ED0000000000002000000000000000000000010
:100EE0000000000001000000000000000000000001
:100EF00000000000CD030200D5FA0100EDF9010069
:100F0000C5FB0100C9030200A5FA0100E9F90100CF
:100F100095FB0100C5030200F1F90100E5F90100AC
:100F20008DFB010000000000000000009DD60100C4
:100F30000000000000000000BDD60100000000001D
:100F400000000000C1D60100000000000000000009
:100F50000000000000000000000000000000000091
:100F60000000000000000000000000000000000081
:100F70000000000000000000000000000000000071
:100F8000000000000000000069D701000000000020
:100F90000000000079DD010099DD01000000000083
:100FA0000000000000000000000000000000000041
:100FB0000000000000000000000000000000000031
:100FC0000000000000000000000000000000000021
:100FD000000000000000000000000000E5EC01003F
:100FE000B3E5010000000000000000000000000068
:100FF00000000000000000000000000000000000F1
:1010000000000000000000000000000000000000E0
:1010100000000000000000000000000000000000D0
:101020000000000000000000F1EC010000000000E2
:101030000000000049E9010000000000000000007D
:1010400000000000000000000000000000000000A0
:101050000000000045E901000000000041E9010036
:101060000000000000000000000000000000000080
:101070000000000039EE010039EE01000000000020
:1010800000000000D1EA01000000000000000000A4
:10109000DBEA010000000000C9EA010000000000D6
:1010A000000000000000000000000000C5EA010090
:1010B000E3EA010000000000000000000000000062
:1010C0000000000000000000F5EC0100000000003E
:1010D0000000000001EC0100000000000000000022
:1010E0000000000000000000000000000000000000
:1010F00000000000E1EB010000000000D5EB010062
:1011000000000000000000000000000000000000DF
:101110000000000099EC010021EC0100000000003B
:10112000000000009DE901000000000039EE010010
:10113000000000000000000011EA010000000000B3
:10114000E3E9010000000000000000008DEA01005A
:10115000000000002F7372632F6D6265642D73723F
:10116000632F746172676574732F68616C2F5441CB
:10117000524745545F4E4F524449432F54415247C2
:1011800045545F4D43555F4E524635313832322F0C
:101190006770696F5F6F626A6563742E6800000034
:1011A0002F7372632F6D6265642D7372632F746188
:1011B00072676574732F68616C2F544152474554B0
:1011C0005F4E4F524449432F5441524745545F4D5F
:1011D00043555F4E524635313832322F6770696F52
:1011E0005F6170692E6300002F7372632F6D6265FB
:1011F000642D7372632F746172676574732F6861F5
:101200006C2F5441524745545F4E4F524449432F2F
:101210005441524745545F4D43555F4E5246353118
:101220003832322F70696E6D61702E6300000000DD
:101230005C12020000280020C400000004C101006C
:1012400020130200C42800207807000020C10100FC
:1012500045DCFFFFF1DBFFFF11DCFFFF00000000BA
:10126000000000000000000000000000000000007E
:10127000000000000024F400000000000000000056
:1012800000000000881300000000000000A00040E3
:10129000010001000100000000000000000000004B
:1012A000000000000000000000000000000000003E
:1012B000000000000000000000000000000000002E
:1012C000000000000000000000000000000000001E
:1012D000000000000000000000000000000000000E
:1012E00000000000000000000000000000000000FE
:1012F00000000000BDF4010000000000000000003C
:1013000000000000000000000000000000000000DD
:1013100000000000000000000000000000000000CD
:00000001FF
